:020000040800F2
:100000009025002045010008350F00086F08000802
:10001000B50C0008E3060008671D0008000000009A
:100020000000000000000000000000000D140008A7
:100030002D07000800000000E50F00084116000829
:100040005F0100085F0100085F0100085F01000810
:100050005F0100085F0100085F0100085F01000800
:100060005F0100085F0100085F0100085F010008F0
:100070005F0100085F0100085F0100085F010008E0
:100080005F0100085F0100085F0100085F010008D0
:100090005F0100085F0100085F0100085F010008C0
:1000A0005F0100085F0100085F0100085F010008B0
:1000B0005F0100085F0100085F0100085F010008A0
:1000C0005F0100085F0100085F0100085F01000890
:1000D0005F010008A91A00085F0100085F0100081D
:1000E0005F0100085F0100085F0100085F01000870
:1000F0005F0100085F0100085F0100085F01000860
:100100005F0100085F0100085F0100085F0100084F
:100110005F0100085F0100085F0100085F0100083F
:100120005F0100085F0100085F0100085F0100082F
:10013000DFF80CD000F0A4FA00480047552600086C
:10014000902500200648804706480047FEE7FEE766
:10015000FEE7FEE7FEE7FEE7FEE7FEE7FEE7FEE777
:10016000491600083101000830B505462A460B46FD
:1001700012F8010B13F8014B08B1A042F8D01CB1E2
:10018000002802D06D1CF1E7284630BD2DE9FE4F56
:10019000804681EA0300C00F0C46009021F0004128
:1001A00023F00045B8EB0200A94105D240462146A4
:1001B00090461C460B46024623F00040104347D0B1
:1001C000270DC7F30A00C3F30A510290401A0190A9
:1001D00040286BDAC3F3130040F4801B009892466A
:1001E00020B10023D2EB030A63EB0B0B01985946B5
:1001F000C0F14002504600F09EF906460D465046BA
:100200005946019A00F0B6F910EB0800614100244C
:1002100087EA115284EAE7731A4340D0009A62B326
:10022000019A012A4FEA075215DC001B61EB02011B
:100230004FF0004202EA0752CDE90042001C41F5AE
:10024000801132462B4600F0B6F903B0BDE8F08FBE
:1002500040462146F9E7001B61EB0201001C41F515
:10026000801300185B412018A2F5001747EB03012B
:1002700040EAD570B6196D4111E06D084FEA3606B7
:1002800045EAC0754FEA0752001B61EB0201001CF2
:1002900041F5801149084FEA3000001951413246BA
:1002A0002B4603B0BDE8F04F00F076B9009801226C
:1002B00040000023D0EB020263EBE073009821467C
:1002C0004FEAE074B8EB000061EB0401E9E783F06A
:1002D00000435BE781F0004158E72DE9FE4F81EADA
:1002E000030404F0004421F0004100944FF0000B9F
:1002F00023F0004350EA01045ED052EA03045BD0CD
:10030000C3F30A54C1F30A552C44A4F2F334019404
:10031000A0FB0254C1F3130141F48011C3F3130392
:1003200043F4801301FB024400FB034E840A970A46
:1003300044EA815447EA8357A4FB076802958D0A73
:1003400005FB07854FEA932C04FB0C542705029DFF
:100350004FEA065847EA1637B5EB08056EEB070C6F
:10036000870E920E47EA811742EA8312A7FB020129
:10037000B6EB0B0164EB00042B0D43EA0C335E1863
:1003800044EB1C50DA465146E7FB0201C5F3130467
:100390004FEA0B3343EA14534FEA0432019C43EA19
:1003A0000603A4F10C040294009CCDE900B400F013
:1003B00002F903B0BDE8F08F00200146F9E72DE90E
:1003C000F04D81EA030404F0004B21F0004514468F
:1003D0004FF0000A23F0004150EA050220D054EA11
:1003E00001021DD0C5F30A570246C5F31303C1F33A
:1003F0001300C1F30A5640F4801543F48013A7EBB1
:100400000608101BD64608F2FD3873EB050002D330
:1004100008F1010801E092185B41B8F1000F03DA1E
:1004200000200146BDE8F08D00204FF48011064603
:1004300084460EE0171B73EB050705D3121B63EB15
:10044000050306434CEA010C49084FEA30009218B4
:100450005B4150EA0107EDD152EA030012D082EA73
:10046000040083EA0501084305D0101BAB4106D206
:100470000122002306E000224FF0004302E06FF06B
:10048000010253101AEB06004CEB085110EB0A0066
:1004900041EB0B01BDE8F04D00F07EB80EB5C10F89
:1004A00080EAE0700844CA07002140F233438DE837
:1004B0000E000A460B4600F07EF803B000BD0EB5F4
:1004C00040F2334102910021CDE900110A460B466A
:1004D00000F071F803B000BDC1F30A5210B5C1F3CA
:1004E000130140F2FF3341F480119A4201DA0020F7
:1004F00010BD40F233439A42A2F2334203DC52422F
:1005000000F028F810BD904010BD30B50B460146F4
:1005100000202022012409E021FA02F59D4205D3A2
:1005200003FA02F5491B04FA02F52844151EA2F14C
:100530000102F1DC30BD202A04DB203A00FA02F18E
:10054000002070479140C2F1200320FA03F31943C1
:1005500090407047202A04DB203A21FA02F0002163
:10056000704721FA02F3D040C2F1200291400843C3
:1005700019467047202A06DBCB17203A41FA02F0D1
:1005800043EAE07306E041FA02F3D040C2F12002F0
:10059000914008431946704710B5141E73F10004CA
:1005A00008DA401C41F1000192185B411A4301D165
:1005B00020F0010010BD2DE9F04D92469B4611B18F
:1005C000B1FA81F202E0B0FA80F220329046FFF7F1
:1005D000B2FF04460F4640EA0A0041EA0B015346C7
:1005E0005A46084313D0114653EA010019D0C8F106
:1005F00040025046FFF7AEFF05460E4650465946AC
:100600004246FFF798FF084305D0012004E020464A
:100610003946BDE8F08D0020054346EAE0762C43DC
:1006200037430A986305E40AA0EB08000022FD0A9C
:1006300044EA47540A3002D500200146E9E70105A3
:1006400010196941DDE9084500196941BDE8F04D1F
:10065000A2E770B521F0004303430CD0C1F30A5563
:100660000024D5EB040564EB0403D617AD1AB3419F
:1006700002DB0020014670BD201841EB025170BD25
:10068000064C074D06E0E06840F0010394E80700DF
:1006900098471034AC42F6D3FFF74EFDC828000847
:1006A000E828000870B5C1F30A5201F000450024A3
:1006B000C1F3130140F2FF3341F480119A4201DA91
:1006C000002070BD40F233439A42A2F2334203DC71
:1006D0005242FFF73FFF00E090402C43F1D04042F0
:1006E00070BD00BFFEE700000448006820B1034869
:1006F0000068401E01490860704700005C0000204F
:1007000070B5044600250748007840B1002006492E
:1007100081F8FF0021460448FFF726FD05462846DC
:1007200070BD000060000020902000207047000095
:10073000074908604FF0E021096941F001014FF0DD
:10074000E022116100BF024909680029FBD170470E
:100750005C0000202DE9F041024600250026002023
:1007600000230024002791F803C00CF00F0591F836
:1007700003C00CF0100CBCF1000F03D091F802C0C4
:100780004CEA050591F800C0BCF1000F31D01468A7
:1007900000202BE04FF0010C0CFA00F3B1F800C080
:1007A0000CEA03069E4220D183004FF00F0C0CFA96
:1007B00003F7BC4305FA03FC4CEA040491F803C0B8
:1007C000BCF1280F06D14FF0010C0CFA00FCC2F866
:1007D00014C00AE091F803C0BCF1480F05D14FF0F6
:1007E000010C0CFA00FCC2F810C0401C0828D1D340
:1007F0001460B1F800C0BCF1FF0F34DD5468002074
:100800002EE000F1080C4FF0010808FA0CF3B1F8E3
:1008100000C00CEA03069E4221D183004FF00F0C6A
:100820000CFA03F7BC4305FA03FC4CEA040491F804
:1008300003C0BCF1280F05D100F1080C08FA0CF830
:10084000C2F8148091F803C0BCF1480F07D100F141
:10085000080C4FF0010808FA0CF8C2F81080401C90
:100860000828CED35460BDE8F0810161704700BF15
:10087000FEE700002DE9F047002700264FF49668B8
:10088000B14677A0FFF73CFF18B177A001F0CCFA92
:10089000D2E07AA0FFF734FF18B17AA001F0C4FAD1
:1008A000CAE07BA0FFF72CFF18B17CA001F0BCFAD6
:1008B000C2E07DA0FFF724FF18B17DA001F0B4FADB
:1008C000BAE07EA0FFF71CFF18B17EA001F0ACFAE1
:1008D000B2E07FA0FFF714FF30B180A001F0A4FACE
:1008E00081A001F0A1FAA7E083A0FFF709FF00288B
:1008F00031D08448007A2D280AD183480578814870
:10090000407AA0F13006314680A001F08DFA09E06E
:100910008A4805787B48007AA0F13006314688A0E5
:1009200001F082FA9148007898FBF0F0704387B2AA
:1009300000240AE04FF46171284600F0FFFB4FF4F9
:10094000FA60FFF7F5FE601C84B2BC42F2DB88A0BF
:1009500001F06AFA70E088A0FFF7D2FE002831D0DB
:100960006848007A2D280AD1864805786548407A7B
:10097000A0F13006314684A001F056FA09E08D4816
:1009800005786048007AA0F1300631468AA001F06F
:100990004BFA7648007898FBF0F0704387B2002459
:1009A0000AE04FF46171284600F040FC4FF4FA6011
:1009B000FFF7BEFE601C84B2BC42F2DB6CA001F00B
:1009C00033FA39E088A0FFF79BFE002831D04D486C
:1009D000007A2D280AD1874805784A48407AA0F144
:1009E0003006314684A001F01FFA09E090480578EE
:1009F0004448007AA0F1300631468EA001F014FA86
:100A00005A48007898FBF0F0704387B200240AE05F
:100A10004FF46171284600F081FC4FF4FA60FFF753
:100A200087FE601C84B2BC42F2DB51A001F0FCF9ED
:100A300002E08DA001F0F8F94FF0000907E0002076
:100A4000304901F8090009F101001FFA80F9B9F1F4
:100A5000FF0FF4DD002088490880BDE8F087000022
:100A60002453544154555300252553544154555350
:100A70002C592C4E2C302C300D0A00002443414DB3
:100A80002C4F6E00252543414D2C4F6B0D0A000065
:100A90002443414D2C4F666600000000252543414C
:100AA0004D2C4572720D0A002449522C4F6E0000E5
:100AB000252549522C4F6B0D0A0000002449522C69
:100AC0004F666600252549522C4572720D0A0000BA
:100AD00024484F4D452C476F000000002525484F06
:100AE0004D452C4F6B0D0A002525484F4D452C4494
:100AF0006F6E650D0A000000244D4F56452C582C92
:100B000000000000902000207E0000202525527566
:100B10006E2D50697463684D6F746F7230204D6F25
:100B200076696E6720746F20446F776E2061732042
:100B3000537465702025640D0A0000007F000020BA
:100B4000252552756E2D50697463684D6F746F72F0
:100B500030204D6F76696E6720746F20557020616C
:100B60007320537465702025640D0A0084000020F2
:100B70004D6F7665640D0A00244D4F56452C592C57
:100B80000000000081000020252552756E2D59615E
:100B9000774D6F746F7232204D6F76696E67207477
:100BA0006F204C6566742061732053746570202536
:100BB000640D0A0080000020252552756E2D5961B4
:100BC000774D6F746F7232204D6F76696E67207447
:100BD0006F205269676874206173205374657020B8
:100BE00025640D0A00000000244D4F56452C5A2C58
:100BF0000000000083000020252552756E2D526FE5
:100C00006C6C4D6F746F7231204D6F76696E67201A
:100C1000746F20416E7469436C6F636B77697365A1
:100C200020617320537465702025640D0A00000054
:100C300082000020252552756E2D526F6C6C4D6F11
:100C4000746F7231204D6F76696E6720746F204328
:100C50006C6F636B77697365206173205374657083
:100C60002025640D0A0000004E6F7420436F6D6DE7
:100C7000616E640D0A0000006200002008B50121C9
:100C8000082000F0D1F943F22000ADF80000102058
:100C90008DF8030003208DF8020069460448FFF731
:100CA00059FD43F220010248FFF7DFFD08BD0000B7
:100CB000000C014000BFFEE710B50C4800880C4A4C
:100CC00032F810100B4800F09AFE08484088084A95
:100CD00032F81010074800F090FE04488088044A5B
:100CE00032F81010034800F086FE10BD30000020DE
:100CF000900000200004004010B50D4800880D4A07
:100D000032F810100C4800F074FE09484088094A77
:100D100032F810104FF0804000F071FE04488088D7
:100D2000044A32F810104FF0804000F066FE10BD0B
:100D300036000020900000200004004010B50D484F
:100D400000880D4A32F810100C4800F058FE09488F
:100D50004088094A32F810104FF0804000F04BFEF6
:100D600004488088044A32F81010044800F045FE18
:100D700010BD00003C000020900000200008004052
:100D800000B589B001210C2000F04EF901210720A7
:100D900000F02AF918208DF8230003208DF8220096
:100DA0008020ADF8200008A95648FFF7D3FC0320A7
:100DB000ADF8200008A95448FFF7CCFC4C20ADF852
:100DC000200008A94F48FFF7C5FC0220ADF820001D
:100DD00008A94C48FFF7BEFC4FF44070ADF8200066
:100DE00008A94948FFF7B6FC0220ADF8140040F20C
:100DF000FF10ADF818006020ADF816000020ADF827
:100E00001A008DF81C0005A9404800F0FBFD05A95B
:100E10004FF0804000F0F6FD05A93D4800F0F2FDDE
:100E20006020ADF804000120ADF806000020ADF808
:100E30000C00ADF81000ADF80A0001A9334800F02D
:100E4000D3FC0821314800F021FD01A92F4800F012
:100E50002BFD08212D4800F077FD01A92B4800F05B
:100E60007DFD0821294800F0B7FD01A9274800F0C1
:100E700065FC0821254800F0ADFC01A94FF0804039
:100E800000F012FD0821C80600F05EFD01A94FF038
:100E9000804000F063FD0821C80600F09DFD01A917
:100EA0004FF0804000F0A0FC0821C80600F0EEFCE6
:100EB00001A9174800F0F8FC0821154800F044FD8E
:100EC00001A9134800F04AFD0821114800F084FDF3
:100ED00001210E4800F01AFC0121880700F016FCE1
:100EE00001210B4800F012FC0121084800F01AFC17
:100EF0000121880700F016FC0121054800F012FCD2
:100F000009B000BD00080140000C01400004004091
:100F10000008004010B5FFF7CFFEFFF7EDFEFFF72A
:100F20000DFF10BD10B500F0E7FAFFF729FFFFF73E
:100F3000F1FF10BD7047000070B5002100230F22A3
:100F4000C47804B3154C246804F4E064C4F5E06488
:100F5000210AC1F10403CA40447804FA03F18478F9
:100F60001440214309010E4C0678A155047804F081
:100F70001F050124AC4005786D11AD0005F1E02599
:100F8000C5F8004109E0047804F01F050124AC40D5
:100F9000044D0678761145F8264070BD0CED00E052
:100FA00000E400E080E100E002490143024A1160F0
:100FB000704700000000FA050CED00E010B50028B5
:100FC00007DA0A07140E054A00F00F031B1FD4545A
:100FD00003E00A07130E024A135410BD18ED00E097
:100FE00000E400E07047000029B1064AD2690243DC
:100FF000044BDA6104E0034AD2698243014BDA61AF
:10100000704700000010024029B1064A12690243ED
:10101000044B1A6104E0034A12698243014B1A61CE
:10102000704700000010024029B1064A926902434D
:10103000044B9A6104E0034A92698243014B9A612E
:10104000704700000010024029B1064AD2680243EE
:10105000044BDA6004E0034AD2688243014BDA6051
:10106000704700000010024030B50021002200242B
:1010700000232D4D6D6805F00C0121B1042905D028
:10108000082923D105E0294D056022E0274D0560A0
:101090001FE0254D6D6805F47012234D6D6805F451
:1010A0008034022505EB92421CB9214D5543056061
:1010B0000BE01D4D6D6805F400351DB11C4D554309
:1010C000056002E0194D5543056002E0174D0560CB
:1010D00000BF00BF144D6D6805F0F0010909154D02
:1010E0006B5C0568DD4045600F4D6D6805F4E0619F
:1010F000090A104D6B5C4568DD4085600A4D6D68DE
:1011000005F46051C90A0B4D6B5C4568DD40C56054
:10111000054D6D6805F44041890B074D6B5CC56852
:10112000B5FBF3F5056130BD0010024000127A00F6
:1011300000093D00140000202400002070B5054681
:101140000C46002C63D032480088844215D01E2CF7
:1011500009DA1E2090FBF4F0401E2E490880012081
:101160002D49088007E000202A4908801E2094FBB2
:10117000F0F029490880264804802848008825493D
:101180000988884205DA25480088401C23490880E0
:101190003DE0002021490880FFF78EFD20480088AF
:1011A000204909880844204949571B4A128801FBF5
:1011B00002001C49098890FBF1F201FB120018495A
:1011C0000880084640881749098808441649495745
:1011D000114A128801FB02001249098890FBF1F2C2
:1011E00001FB12000E494880084680880D49098895
:1011F00001440D484057084A128800FB0210094973
:10120000098890FBF1F201FB12000549888070BD4E
:10121000420000204400002048000020460000203A
:10122000300000202C000020A427000870B50546DF
:101230000C46002C63D032480088844215D01E2C06
:1012400009DA1E2090FBF4F0401E2E490880012090
:101250002D49088007E000202A4908801E2094FBC1
:10126000F0F029490880264804802848008825494C
:101270000988884205DA25480088401C23490880EF
:101280003DE0002021490880FFF758FD20480088F4
:10129000204909880844204949571B4A128801FB04
:1012A00002001C49098890FBF1F201FB1200184969
:1012B0000880084640881749098808441649495754
:1012C000114A128801FB02001249098890FBF1F2D1
:1012D00001FB12000E494880084680880D490988A4
:1012E00001440D484057084A128800FB0210094982
:1012F000098890FBF1F201FB12000549888070BD5E
:101300005200002054000020580000205600002009
:101310003C0000202C000020A427000870B50546E2
:101320000C46002C63D032480088844215D01E2C15
:1013300009DA1E2090FBF4F0401E2E49088001209F
:101340002D49088007E000202A4908801E2094FBD0
:10135000F0F029490880264804802848008825495B
:101360000988884205DA25480088401C23490880FE
:101370003DE0002021490880FFF7BEFC204800889E
:10138000204909880844204949571B4A128801FB13
:1013900002001C49098890FBF1F201FB1200184978
:1013A0000880084640881749098808441649495763
:1013B000114A128801FB02001249098890FBF1F2E0
:1013C00001FB12000E494880084680880D490988B3
:1013D00001440D484057084A128800FB0210094991
:1013E000098890FBF1F201FB12000549888070BD6D
:1013F0004A0000204C000020500000204E00002039
:10140000360000202C000020A4270008704710B5EB
:1014100000F002F810BD00000CB500200190009013
:101420003348006840F480303149086000BF3048DC
:10143000006800F4003000900198401C0190009872
:1014400018B90198B0F5A06FF1D12948006800F4EF
:10145000003010B10120009001E0002000900098C1
:10146000012843D12348006840F01000214908605A
:101470000846006820F0030008600846006840F055
:10148000020008601A4840681949486008464068E8
:1014900048600846406840F48060486008464068FC
:1014A00020F47C1048600846406840F4E81048602A
:1014B0000846006840F08070086000BF0C48006873
:1014C00000F000700028F9D00948406820F00300BF
:1014D000074948600846406840F00200486000BF85
:1014E0000348406800F00C000828F9D10CBD00004A
:1014F00000100240002002402DE9F0478EB04FF06E
:10150000000A4FF416604449088008460088032109
:1015100090FBF1F0414908800020414908800846CD
:1015200000883E49098808443D494880084640886B
:101530003A49098808443A49888000203949088096
:1015400008460088354909880844364948800846D5
:10155000408832490988084432498880002032494D
:101560000880084600882D49098808442E4948808B
:10157000084640882949098808442B49888000BFCB
:1015800042E025480088FEF79AFFCDE902010AF102
:101590000100FEF783FF06460022244BFEF79DFE66
:1015A000CDE90001DDE90223FEF709FF00224FF03B
:1015B0008043CDE90401FEF790FE04461C4A1D4B12
:1015C000FEF78BFE804601F09DF80022174BCDE917
:1015D0000601FEF7DBFD0022174BCDE90801FEF7FF
:1015E0007CFE00224FF08043CDE90A01FEF7E7FEC2
:1015F000CDE90C01FEF770FF1930104921F81A00EF
:101600000AF101001FFA80FA034800888245B8DB1E
:101610000EB0BDE8F08700002C0000202E00002056
:1016200030000020360000203C0000200000F03F89
:10163000182D4454FB21094000D07C40900000202C
:1016400000B5FFF751F800BD10B51348006840F031
:1016500001001149086008464068104908400E49D9
:101660004860084600680E4908400B490860084673
:10167000006820F4802008600846406820F4FE00DE
:1016800048604FF41F008860FFF7C1FE4FF0006014
:101690000449086010BD0000001002400000FFF87F
:1016A000FFFFF6FE08ED00E010B516480068164989
:1016B000B0FBF1F4B4F1807F01D3012011E024F0FC
:1016C0007F40401E4FF0E02148610F214FF0FF3076
:1016D000FFF774FC00204FF0E021886107200861CB
:1016E000002008B100BFFEE74FF0E020006920F0C5
:1016F00001004FF0E02108610021481EFFF75EFC69
:1017000010BD00000000002040420F0021B10288FF
:1017100042F08002028004E002884FF67F731A4094
:101720000280704721B1028842F00102028004E089
:1017300002884FF6FE731A400280704770B500248D
:1017400000220023058C4FF6FE7635400584028C7E
:101750008388048B4FF68F752C40B51E2C400D8866
:101760002C43751E2A400D892A434D882A43144D67
:10177000A8420BD0134DA84208D0134DA84205D063
:10178000124DA84202D0124DA84213D14FF6F77560
:101790002A404D892A434FF6FB752A408D882A43FB
:1017A0004FF6FF652B404FF6FF552B408D892B439D
:1017B000CD892B4383800483CD888586028470BDC8
:1017C000002C014000340140004001400044014031
:1017D000004801400A460021018B4FF6F77319407B
:1017E000114301837047000070B5002400220023DC
:1017F000058C4FF6EF7635400584028C8388048B88
:1018000048F6FF752C404FF6FF452C400D884FF6EB
:10181000FF7606EA05252C434FF6DF752A400D8931
:1018200006EA05152A434D8806EA05152A43154D93
:10183000A84202D0144DA8421DD14FF67F752A4010
:101840004D894FF6FF7606EA05152A434FF6BF7518
:101850002A408D8806EA05152A434FF6FF352B40AE
:101860004FF2FF752B408D8906EA85052B43CD8904
:1018700006EA85052B4383800483CD88058702848F
:1018800070BD0000002C0140003401400A460021D8
:10189000018B4FF2FF7319404FF6FF7303EA0223E7
:1018A000194301837047000070B500240022002313
:1018B000058C4FF6FF6635400584028C8388848B47
:1018C0004FF68F752C404FF6FC752C400D882C433D
:1018D0004FF6FF552A400D894FF6FF7606EA05259B
:1018E0002A434D8806EA05252A43154DA84202D011
:1018F000144DA8421DD14FF2FF752A404D894FF675
:10190000FF7606EA05252A434FF6FF352A408D88E3
:1019100006EA05252A434EF6FF752B404DF6FF7566
:101920002B408D8906EA05152B43CD8906EA05155E
:101930002B4383808483CD888587028470BD00001B
:10194000002C0140003401400A460021818B4FF6F3
:10195000F7731940114381837047000070B500226E
:1019600000230024058C4EF6FF7635400584038C59
:101970008488828B48F6FF752A404FF6FF452A403F
:101980000D884FF6FF7606EA05252A434DF6FF75CA
:101990002B400D8906EA05352B434D8806EA0535AF
:1019A0002B430B4DA84202D00A4DA84208D14BF65A
:1019B000FF752C408D894FF6FF7606EA85152C437E
:1019C00084808283CD88A0F84050038470BD0000DD
:1019D000002C0140003401400A460021818B4FF267
:1019E000FF7319404FF6FF7303EA02231943818303
:1019F0007047818670470187704781877047A0F8DC
:101A000040107047002202881D4B98420ED01D4B9B
:101A100098420BD0B0F1804F08D01B4B984205D0B4
:101A20001A4B984202D01A4B984204D14FF68F734A
:101A30001A404B881A43174B984207D0164B9842CE
:101A400004D04FF6FF431A40CB881A4302808B889C
:101A500083850B8803850A4B98420BD0094B98422B
:101A600008D00E4B984205D00D4B984202D00D4B3A
:101A7000984201D10B7A03860123838270470000CC
:101A8000002C0140003401400004004000080040E8
:101A9000000C0040001000400014004000400140D5
:101AA000004401400048014010B540F22551134860
:101AB00000F095F8012820D1104800F04BF9C4B28D
:101AC0000F481049098844544FF400500E490860EB
:101AD0000B480C490988405C0A2803D101200B49B6
:101AE00008700AE007490988481CC11700EB11611A
:101AF0000912A0EB0121034A118010BD00380140FA
:101B00009020002062000020100C014060000020A6
:101B100021B1828942F40052828104E082894DF62B
:101B2000FF731A408281704710B5044620488442F2
:101B300009D101218803FFF787FA00214FF4804083
:101B4000FFF782FA32E01B48844209D101214804A0
:101B5000FFF75AFA00214FF40030FFF755FA25E05D
:101B60001548844209D101218804FFF74DFA00216C
:101B70004FF48020FFF748FA18E01048844209D15A
:101B80000121C804FFF740FA00214FF40020FFF7BD
:101B90003BFA0BE00A48844208D101210805FFF70F
:101BA00033FA00214FF48010FFF72EFA10BD000029
:101BB000003801400044004000480040004C004014
:101BC0000050004002460020B1F5007F00D100BF68
:101BD00013880B400BB1012000E00020704770B566
:101BE0000246002400230025002040F66A16B14278
:101BF00000D100BFC1F3421501F01F03012606FA10
:101C000003F3012D02D19689334006E0022D02D163
:101C1000168A334001E0968A33400C12012606FAF8
:101C200004F41688344013B10CB1012000E0002008
:101C300070BDF0B50346002400260025002040F6C4
:101C40006A17B94200D100BF1846C1F3421401F02F
:101C50001F06012707FA06F5012C01D10C3004E01C
:101C6000022C01D1103000E014301AB107682F4364
:101C7000076002E00768AF430760F0BD2DE9F04759
:101C800086B005460E460024A24600BFA1460027A6
:101C9000B08900B100BF2F462C8A4CF6FF7004407B
:101CA000F08804432C82AC894EF6F3100440B088CF
:101CB00031890843718908430443AC81AC8A4FF6EB
:101CC000FF400440B0890443AC8201A8FFF7CCF97F
:101CD0001F48874202D1DDF810A001E0DDF80CA01A
:101CE000A88900F4004040B10AEBCA0000EB0A10DA
:101CF00031684900B0FBF1F807E00AEBCA0000EBDD
:101D00000A1031688900B0FBF1F86420B8FBF0F0EC
:101D100004012009642101FB1089A88900F4004016
:101D200040B1322000EBC900B0FBF1F000F0070039
:101D3000044308E0322000EB09106421B0FBF1F00D
:101D400000F00F0004432C8106B0BDE8F0870000CE
:101D50000038014001468888C0F308007047C1F38D
:101D600008028280704700BFFEE7000010B586B011
:101D70000446012144F20500FFF756F94FF40070C4
:101D8000ADF8140018208DF8170003208DF8160008
:101D900005A92248FEF7DEFC4FF48060ADF8140080
:101DA00004208DF8170005A91C48FEF7D3FC1C4839
:101DB000FFF7BAFE01940020ADF80800ADF80C0062
:101DC000ADF80A00ADF810000C20ADF80E0001A926
:101DD0001348FFF753FF4FF4E060FFF7E5F82520C5
:101DE0008DF8000000208DF8010002208DF802001F
:101DF00001208DF803006846FFF79EF8012240F2AB
:101E000025510748FFF715FF01210548FFF780FE20
:101E100000200449087006B010BD00000008014011
:101E200000380140600000200FB4054B10B503A935
:101E3000044A029800F052FB10BC5DF814FB00004D
:101E40003126000888000020490050EAC12018BF50
:101E500004204A0D18BF40F0010040F2FF72B2EBBF
:101E6000515F08BF40F00200012808BF05207047FD
:101E70002DE9F74F144694B00021C4E902111599D9
:101E8000079121F00045C9498D4206DC1599C4E946
:101E9000000117B00020BDE8F08FC549DFF814A39A
:101EA000A9423CDD0799C44E0029C44FC44A159984
:101EB000534619DDFEF70BFA554506D0C14AC24B11
:101EC000FEF705FAC4E900010AE04FF0D352BE4B19
:101ED000FEF7FDF932463B46FEF7F9F9C4E9000189
:101EE00017B00120BDE8F08FFEF750F9554506D038
:101EF000B44AB54BFEF74AF9C4E900010AE04FF0D5
:101F0000D352B14BFEF742F932463B46FEF73EF95B
:101F1000C4E9000117B04FF0FF30BDE8F08FAB49C6
:101F2000A942159978DB21F0004183468846A84AEA
:101F3000A84BFEF7D2F90022A74BFEF727F9FEF7D0
:101F4000B1FB0990FEF7AAFA06460F469C4A534693
:101F5000FEF7C3F943465A46FEF7BCF980468A4667
:101F6000984A994B30463946FEF7B7F92A0D0125B4
:101F70000B9242465346FEF7ADF9032DC4E900012A
:101F800039D00B98C1F30A51401A05EB45111139AC
:101F9000814230DA9148C346784400EB0510CDF811
:101FA0000CA00C90D0E9002330463946FEF795F995
:101FB00002460B460491069058460399FEF787F9AE
:101FC00080468A4602460B4658460399FEF77FF93B
:101FD000049B069AFEF77BF983460C9803913946D9
:101FE000D0E902233046FEF778F95A46039BFEF704
:101FF0006EF96D1CBDE707980028A2BF099817B0BD
:10200000BDE8F08F616881F000416160099817B008
:102010004042BDE8F08FFFE784461598C1F31301F5
:10202000C0F30A50A0F2F5304FEA601800F01F0626
:10203000C6F12000139000200690079041F4801E06
:1020400005206D4676B1664A08EB00017A4452F8E5
:10205000213002EB8101B3404A68139922FA01F161
:10206000194305E05F4908EB0002794451F822105A
:10207000A1FB0E27A1FB0C131A449A4234BF012383
:10208000002303EB070A05EB8003D3E901B70F44F4
:102090008F4234BF0121002193448B4411B19345F9
:1020A00002D903E0934501D2012100E00021C3E9F8
:1020B00001B7514445F82010011EA0F10100C1DC18
:1020C0000298059F00F10050800F12900298DDE900
:1020D00003568000FEF7E2F9834628460D91FEF78D
:1020E000EEF96FF01D02FEF7B4FACDE90E013046AD
:1020F000FEF7E5F96FF03D02FEF7ABFA80468A463F
:102100003846FEF7DCF96FF05D02FEF7A2FA0746EB
:10211000424653461191FEF739F8DDE90E23FEF7EA
:1021200035F85A460D9BFEF731F800250E465A4603
:1021300028460D9BFEF7CBF8DDE90E23FEF7C7F826
:1021400042465346FEF7C3F83A46119BFEF7C2F8E3
:10215000DFF898A0244A5346FEF7BFF807468846A2
:10216000234A244B31462846FEF7B7F83A46434601
:10217000FEF70CF8074688464FF0A8425346314612
:102180002846FEF7AAF83A464346FDF7FFFF159AA0
:1021900012F0004F04D0129A81F000415242129284
:1021A000C4E90001129817B0BDE8F08FFB21E93FA8
:1021B0007CD90240FB21F93F7370032E8A19A33B9F
:1021C000000040543163621A61B4D03DFB213941B3
:1021D00083C8C96D305FE43F0000E03F3C08000069
:1021E000B80700009A070000182D4454FB21F93D60
:1021F0003326A611460B113C2DE9FF4D21F0004876
:1022000007460C46B8F1795F08DAFEF74BFA00286A
:1022100001BF0020324904B0BDE8F08D3A462346A4
:1022200010461946FEF759F8054602462D480E4657
:102230000B460621784400F05DF82A463346FEF747
:102240004CF8DDE9022382468B4638462146FEF7EC
:1022500044F804460F4652465B4628463146FEF790
:102260003CF822463B46FEF732F807468A464FF0D6
:10227000FF3228463146FEF7ECF91B4A90450ADA50
:102280003A465346FEF723F804B00022BDE8F04D6D
:10229000134BFEF71FB8154A4245A8BFA8F5001515
:1022A0004FF00004B8BF124D22462B46FEF70FF840
:1022B0000646884622462B4600200949FEF707F8C5
:1022C00004460D463A46534630464146FDF7FFFF69
:1022D00004B022462B46BDE8F04DFDF7FBBF0000E1
:1022E0000000F03F700500003333D33F0000E93FAA
:1022F0000000D23F2DE9F0414F1E00EBC70104461C
:10230000D1E9000115461E4637F006020DD02A46D7
:102310003346FDF7E2FF7F1E04EBC703D3E900233A
:10232000FDF734FF37F00602F1D1022F25D0042F3C
:1023300013D0062F18BFBDE8F0812A463346FDF7BB
:10234000CCFFD4E90A23FDF721FF2A463346FDF7E7
:10235000C4FFD4E90823FDF719FF2A463346FDF7E9
:10236000BCFFD4E90623FDF711FF2A463346FDF7EB
:10237000B4FFD4E90423FDF709FF2A463346FDF7ED
:10238000ACFFD4E90223FDF701FF2A463346FDF7EF
:10239000A4FFD4E90023BDE8F041FDF7F7BE00003B
:1023A0002DE9FF4D054621F0004084B00C46B0F108
:1023B000795F0BDA2846FFF747FD042808BF00F0D5
:1023C0006FF8284608B02146BDE8F08D2A460B4636
:1023D0001046FDF782FF06460F462A462346FDF7C4
:1023E0007CFF804626488A4632463B460521784493
:1023F000FFF780FF83461098029160B3214A224B79
:1024000040465146FDF769FFCDE900015A46404676
:102410005146029BFDF761FF82468846DDE90601D1
:102420004FF0FF32FEF715F952464346FDF74FFFD6
:1024300032463B46FDF751FFDDE90623FDF747FF36
:10244000DDE90023FDF743FF08B02A462346BDE837
:10245000F04DFDF73FBF0B465A4630463946FDF773
:102460003CFF084A084BFDF791FE42465346FDF7F4
:1024700034FF08B02A462346BDE8F04DFDF786BE7E
:10248000AE040000495555555555C5BF0122FEF70C
:10249000E0B80022134610461146FDF790BF000039
:1024A000024A00201107FEF7D4B8000001FDFFFF2B
:1024B00002E008C8121F08C1002AFAD1704770470D
:1024C000002001E001C1121F002AFBD1704700006B
:1024D00001490860704700008C0000202DE9FF4F83
:1024E00089B09B460446002506E025280BD05A46B5
:1024F0000B999047641C6D1C20780028F5D10DB015
:102500002846BDE8F08F0027B8460122474900E081
:10251000074314F8013F203B02FA03F00842F7D1C9
:1025200020782E2819D114F8010F47F004072A2823
:102530000ED06FF02F022078A0F1300109290CD8BD
:1025400008EB880102EB410100EB0108641CF2E793
:102550000A98641C50F8048B0A9020780028CED08A
:10256000642808D0692806D075281ED05A460B99D1
:1025700090476D1C58E00A994FF00A0901C90A9169
:10258000002802DA40422D2102E0390504D52B2132
:102590008DF82010012103E0F90704D02021F7E78E
:1025A0008A4608AE0DE00021FAE70A994FF00A09C1
:1025B00001C90A91F7E74946FDF7A7FF303106F850
:1025C000011D0028F7D1ADEB060000F120097807C6
:1025D00001D44FF00108C84502DDA8EB090000E076
:1025E00000208046002706E008A85A46C05D0B99E7
:1025F00090476D1C7F1C5745F6DB04E030205A469F
:102600000B9990476D1CB8F10001A8F10108F5DCA9
:1026100005E016F8010B5A460B9990476D1CB9F16D
:102620000001A9F10109F4DC641C65E70928010037
:1026300070B504460D46E1B20548FFF790FB00BFB8
:1026400080210348FFF7BEFA0028F9D0204670BD6C
:10265000003801400024FEF711FBFFF725F84FF486
:10266000E130FFF783FB4FF47A70FEF761F84FF427
:1026700080501B4908604000086020200860C001AD
:10268000091D086040000860202008604FF47A703F
:10269000FEF74EF8FEF746FC4FF47A70FEF748F866
:1026A0001CE0641C0E48001F006880F020000C49EC
:1026B000091F08600B48007860B10BA0FFF7B4FB5E
:1026C000FEF7D8F80020074908704FF4005004497D
:1026D000091D08604FF47A70FEF72AF8E1E7000060
:1026E000100C01406000002052656365697665202A
:1026F0004A6F79737469636B20436F6D6D616E64AB
:102700000D0A000000B5254B21F0004287B09A4227
:1027100003DC0022134600922BE0214B9A4208D1A1
:1027200040B94FF00100FFF7D3FEFFF7B2FE07B04C
:1027300000BD03DBFFF7AAFE07B000BD02AAFFF74A
:1027400097FB10F003014FF001000DD0012914D0C8
:1027500002291AD00DF1080C9CE80F00FFF74CFD80
:1027600007B081F0004100BD0DF1080C00909CE81D
:102770000F00FFF715FE07B000BD0DF1080C9CE837
:102780000F00FFF739FD07B000BD0DF1080C0090F8
:102790009CE80F00FFF704FEE2E70000FB21E93FA1
:1027A0000000F07FFF0100004C5555555555A53FE1
:1027B0007751C1166CC156BF9015CB19A001FA3ED6
:1027C000AD529C804F7E92BEC4B1B4BD9EEE213E00
:1027D000D43888BEE9FAA8BD00004054FB21F93F77
:1027E0003163621A61B4D03D0000601A61B4D03D1B
:1027F0007370032E8A19A33B0000002E8A19A33B95
:10280000C14920259A837B390000000000000000A8
:102810006E83F9A22915444ED15727FCC0DD34F54B
:10282000999562DB4190433CAB6351FE61C5BBDED1
:102830003A6E24B7E0D24D42EA2E49061C92D109E5
:102840001CEB1DFE3EA729B1F53582E88444BB2E62
:1028500026709CE9417E5FB439D69139F4395383AF
:102860008B5F849C3B28F9BDFF97F81F0F9805DE0E
:102870008B112FEF1F6D0A5ACF7E366DB709CB270C
:10288000663F464F2DEA5F9EC7BA27757BF1E5EBA1
:10289000F739073DEA92528AB15FFB6B085D8D1FE5
:1028A000A6F810111111813FD561C119A0012ABFED
:1028B0007DFEB157E31DC73EEB9C2B8AE6E55ABE71
:1028C0007CD5CF5A3AD9E53DE82800080000002021
:1028D00090000000B0240008782900089000002033
:1028E00000250000C024000800A24A0400000000E7
:1028F00000000000010203040607080900000000B0
:102900000102030401020304060708090204060881
:1029100000000000000000000000000000000000B7
:1029200000000000000000000000000000000000A7
:102930000000000000000000000000000000000097
:102940000000000000000000000000000000000087
:102950000000000000000000000000000000000077
:10296000000000000000010000010001090000005B
:0829700000000000000000005F
:0400000508000131BD
:00000001FF
